:020000040800F2
:100000000000032085170008D5170008D517000841
:10001000D5170008D5170008D51700080000000004
:10002000000000000000000000000000D5170008DC
:10003000D517000800000000D51700087517000844
:10004000D5170008D5170008D5170008D5170008E0
:10005000D5170008D5170008D5170008D5170008D0
:10006000D5170008D5170008D5170008D5170008C0
:10007000D5170008D5170008D5170008D5170008B0
:10008000D5170008D5170008D5170008D5170008A0
:10009000D5170008D5170008D5170008D517000890
:1000A000D5170008D5170008D5170008D517000880
:1000B000D5170008D5170008D5170008D517000870
:1000C000D5170008D5170008D5170008D517000860
:1000D000D5170008D5170008D5170008D517000850
:1000E000D5170008D5170008D5170008D517000840
:1000F000D5170008D5170008D5170008D517000830
:10010000D5170008D5170008D5170008D51700081F
:10011000D5170008D5170008D5170008D51700080F
:10012000D5170008D5170008D5170008D5170008FF
:10013000D5170008D5170008D5170008D5170008EF
:10014000D5170008D5170008D5170008D5170008DF
:10015000D5170008D5170008D5170008D5170008CF
:10016000D5170008D5170008D5170008D5170008BF
:10017000D5170008D5170008D517000800000000A3
:10018000D5170008D5170008D5170008D51700089F
:10019000D5170008D5170008D5170008D51700088F
:0C01A000D5170008D5170008D517000877
:1001AC0008B50548054B1B1A062B00D808BD044B97
:1001BC00002BFBD09847F9E7680000206B0000206B
:1001CC000000000008B50748074B1B1A9B1003EBF7
:1001DC00D373591000D108BD044A002AFBD09047B4
:1001EC00F9E700BF68000020680000200000000054
:1001FC0010B5064C237843B9FFF7D2FF044B13B16B
:10020C000448AFF300800123237010BD6800002068
:10021C0000000000E021000808B5074B1BB107489F
:10022C000749AFF300800748036813B1064B03B1CD
:10023C009847BDE80840C5E700000000E021000831
:10024C006C000020680000200000000080B400AFAB
:10025C00164B164AD2F8882042F47002C3F8882054
:10026C00134B134A126842F001021A60104B002221
:10027C009A600F4A0E4B1B6823F0847323F480336F
:10028C0013600B4B0B4A5A60094B094A126822F453
:10029C0080221A60064B0022DA60044B4FF0006299
:1002AC009A60BD465DF8047B704700BF00ED00E02E
:1002BC00003802401030002480B500AF0E4B0E4ABF
:1002CC00126842F400721A600B4B0B4A126842F42B
:1002DC0080621A60084B084A126842F480721A60F5
:1002EC00032000F007F9002000F008F801F030FAC4
:1002FC000023184680BD00BF003C024080B582B090
:10030C0000AF786000F05CFF0246094BA3FB0213C0
:10031C009B09184600F014F94FF0FF307968002261
:10032C0000F0F2F8002318460837BD4680BD00BF28
:10033C00D34D621080B400AF044B1B685A1C034BA6
:10034C001A60BD465DF8047B704700BF8400002036
:10035C0080B400AF034B1B681846BD465DF8047BA8
:10036C00704700BF8400002080B584B000AF786077
:10037C000023FB60FFF7ECFFF86000BFFFF7E8FF1E
:10038C000246FB68D21A7B689A42F7D31037BD46F7
:10039C0080BD00BF80B485B000AF78607B6803F08F
:1003AC000703FB600C4BDB68BB60BA684FF6FF03BE
:1003BC001340BB60FB681A02BB68134343F0BF6376
:1003CC0043F40033BB60044BBA68DA601437BD46A3
:1003DC005DF8047B704700BF00ED00E080B400AF17
:1003EC00044BDB6803F4E0631B0A1846BD465DF85A
:1003FC00047B704700ED00E080B483B000AF03468F
:10040C003960FB7197F90730002B0BDA0D49FB793A
:10041C0003F00F03043B3A68D2B21201D2B20B4480
:10042C001A7609E0084997F907303A68D2B21201F6
:10043C00D2B20B4483F800230C37BD465DF8047B25
:10044C00704700BF00ED00E000E100E080B489B02F
:10045C0000AFF860B9607A60FB6803F00703FB61DA
:10046C00FB69C3F10703042B28BF0423BB61FB69A1
:10047C000433062B02D9FB69033B00E000237B61AC
:10048C00BB69012202FA03F35A1EBB681A407B694E
:10049C009A407B69012101FA03F3591E7B680B40DA
:1004AC00134318462437BD465DF8047B704700BFE4
:1004BC0080B582B000AF78607B68013BB3F1807F80
:1004CC0001D301230FE00A4B7A68013A5A604FF0CE
:1004DC00FF300F21FFF790FF054B00229A60044B71
:1004EC0007221A60002318460837BD4680BD00BF9E
:1004FC0010E000E080B582B000AF78607868FFF75C
:10050C0049FF0837BD4680BD80B586B000AF0346B5
:10051C00B9607A60FB7300237B61FFF75FFF786142
:10052C007869B9687A68FFF791FF034697F90F204D
:10053C0010461946FFF760FF1837BD4680BD00BF57
:10054C0080B582B000AF78607868FFF7B1FF0346E2
:10055C0018460837BD4680BD80B483B000AF7860C4
:10056C007B68042B06D1094B084A126842F004023E
:10057C001A6005E0054B054A126822F004021A6065
:10058C000C37BD465DF8047B704700BF10E000E0FF
:10059C0080B500AF00F002F880BD00BF80B400AFA2
:1005AC00BD465DF8047B704780B489B000AF7860BD
:1005BC00396000237B6100233B610023BB61002376
:1005CC00FB6175E1FB69012202FA03F37B613B6875
:1005DC001A687B6913403B613A697B699A4240F027
:1005EC0064813B685B68022B03D03B685B68122B11
:1005FC0023D1FB69DA087B68083253F82230BB61DF
:10060C00FB6903F007039B000F2202FA03F3DB43A1
:10061C00BA691340BB613B681A69FB6903F00703B5
:10062C009B0002FA03F3BA691343BB61FB69DA0856
:10063C007B680832B96943F822107B681B68BB6180
:10064C00FB695B00032202FA03F3DB43BA69134034
:10065C00BB613B685B6803F00302FB695B0002FA59
:10066C0003F3BA691343BB617B68BA691A603B68D0
:10067C005B68012B0BD03B685B68022B07D03B6897
:10068C005B68112B03D03B685B68122B30D17B6805
:10069C009B68BB61FB695B00032202FA03F3DB433B
:1006AC00BA691340BB613B68DA68FB695B0002FA0C
:1006BC0003F3BA691343BB617B68BA699A607B68C0
:1006CC005B68BB61FB69012202FA03F3DB43BA6985
:1006DC001340BB613B685B6803F010031A09FB69AC
:1006EC0002FA03F3BA691343BB617B68BA695A60B7
:1006FC007B68DB68BB61FB695B00032202FA03F3D6
:10070C00DB43BA691340BB613B689A68FB695B00C9
:10071C0002FA03F3BA691343BB617B68BA69DA6006
:10072C003B685B6803F08053002B00F0BE80654B88
:10073C00644A526C42F480425A64624B5B6C03F420
:10074C008043FB60FB68604BFA699208023253F8F5
:10075C002230BB61FB6903F003039B000F2202FAFA
:10076C0003F3DB43BA691340BB617A68574B9A4277
:10077C0037D07A68564B9A4231D07A68554B9A42A8
:10078C002BD07A68544B9A4225D07A68534B9A42B4
:10079C001FD07A68524B9A4219D07A68514B9A42C0
:1007AC0013D07A68504B9A420DD07A684F4B9A42CC
:1007BC0007D07A684E4B9A4201D1092312E00A23E2
:1007CC0010E008230EE007230CE006230AE00523C3
:1007DC0008E0042306E0032304E0022302E00123E3
:1007EC0000E00023FA6902F0030292009340BA6918
:1007FC001343BB61344BFA6992080232B96943F86E
:10080C0022103C4B1B68BB613B69DB43BA6913404C
:10081C00BB613B685B6803F48033002B03D0BA697F
:10082C003B691343BB61334BBA691A60314B5B684C
:10083C00BB613B69DB43BA691340BB613B685B68D6
:10084C0003F40033002B03D0BA693B691343BB613B
:10085C00284BBA695A60274B9B68BB613B69DB43E9
:10086C00BA691340BB613B685B6803F48013002BCF
:10087C0003D0BA693B691343BB611E4BBA699A60DA
:10088C001C4BDB68BB613B69DB43BA691340BB6142
:10089C003B685B6803F40013002B03D0BA693B6917
:1008AC001343BB61134BBA69DA60FB690133FB611B
:1008BC00FB690F2B7FF686AE2437BD465DF8047BB3
:1008CC00704700BF00380240003801400000024071
:1008DC000004024000080240000C024000100240DC
:1008EC000014024000180240001C0240002002408C
:1008FC0000240240003C014080B483B000AF78601B
:10090C000B467B807B685A697B885A407B685A61AE
:10091C000C37BD465DF8047B704700BF80B58EB0C8
:10092C0000AF786000237B637B681B6803F00103D6
:10093C00002B6AD0A24B9B6803F00C03042B0BD04A
:10094C009F4B9B6803F00C03082B12D19C4B5B68EC
:10095C0003F48003002B0CD0994B1B6803F4003379
:10096C00002B05D07B685B68002B01D101230FE2C3
:10097C004BE0944B00221A70FFF7EAFC78630AE014
:10098C00FFF7E6FC02467B6BD21A41F288339A429F
:10099C0001D90323FCE18A4B1B6803F40033002BC1
:1009AC00EED1884B7A685268D2B21A707B685B6859
:1009BC00002B15D0FFF7CCFC78630AE0FFF7C8FCDE
:1009CC0002467B6BD21A41F288339A4201D9032337
:1009DC00DEE17B4B1B6803F40033002BEED014E0FC
:1009EC00FFF7B6FC78630AE0FFF7B2FC02467B6BBC
:1009FC00D21A41F288339A4201D90323C8E1704BD1
:100A0C001B6803F40033002BEED17B681B6803F0EA
:100A1C000203002B77D06A4B9B6803F00C03002B6E
:100A2C000BD0674B9B6803F00C03082B26D1644B4F
:100A3C005B6803F48003002B20D1614B1B6803F02F
:100A4C000203002B05D07B68DB68012B01D001234E
:100A5C009EE15B4B5A4A126822F0F8017A681069E1
:100A6C00F8223A633A6B92FAA2F2FA62FA6AB2FA92
:100A7C0082F200FA02F20A431A6044E07B68DB68F7
:100A8C00002B2AD0504B01221A60FFF761FC7863CF
:100A9C0008E0FFF75DFC02467B6BD31A642B01D98F
:100AAC00032375E1464B1B6803F00203002BF0D0C7
:100ABC00434B434A126822F0F8017A681069F82215
:100ACC00BA62BA6A92FAA2F27A627A6AB2FA82F2DA
:100ADC0000FA02F20A431A6015E03B4B00221A603E
:100AEC00FFF736FC786308E0FFF732FC02467B6BBD
:100AFC00D31A642B01D903234AE1314B1B6803F051
:100B0C000203002BF0D17B681B6803F00803002B59
:100B1C0030D07B685B69002B16D02C4B01221A60FD
:100B2C00FFF716FC786308E0FFF712FC02467B6BBC
:100B3C00D31A642B01D903232AE1214B5B6F03F0F9
:100B4C000203002BF0D015E0204B00221A60FFF7B7
:100B5C00FFFB786308E0FFF7FBFB02467B6BD31AC5
:100B6C00642B01D9032313E1154B5B6F03F00203D4
:100B7C00002BF0D17B681B6803F00403002B7BD0A7
:100B8C000F4B0F4A126C42F080521A640C4B1B6CC8
:100B9C0003F08053BB60BB680D4B0D4A126842F4E6
:100BAC0080721A60FFF7D4FB786313E0FFF7D0FB79
:100BBC0002467B6BD31A642B0CD90323E8E000BFED
:100BCC00003802400238024000004742800E474283
:100BDC0000700040704B1B6803F48073002BE5D051
:100BEC006E4B00221A70FFF7B3FB78630AE0FFF735
:100BFC00AFFB02467B6BD21A41F288339A4201D981
:100C0C000323C5E0664B1B6F03F00203002BEED1F0
:100C1C00624B7A689268D2B21A707B689B68002B20
:100C2C0015D0FFF795FB78630AE0FFF791FB0246BE
:100C3C007B6BD21A41F288339A4201D90323A7E085
:100C4C00574B1B6F03F00203002BEED014E0FFF7A1
:100C5C007FFB78630AE0FFF77BFB02467B6BD21AC3
:100C6C0041F288339A4201D9032391E04C4B1B6F1C
:100C7C0003F00203002BEED17B689B69002B00F084
:100C8C008680474B9B6803F00C03082B7DD07B6858
:100C9C009B69022B62D1434B00221A60FFF758FB71
:100CAC00786308E0FFF754FB02467B6BD31A642B86
:100CBC0001D903236CE03A4B1B6803F00073002B43
:100CCC00F0D1374B7A68D1697A68126A11437A6825
:100CDC00506A47F6C0723A623A6A92FAA2F2FA6124
:100CEC00FA69B2FA82F200FA02F211437A68926A55
:100CFC005208501E4FF44032BA61BA6992FAA2F20D
:100D0C007A617A69B2FA82F200FA02F211437A68D5
:100D1C00D06A4FF070623A613A6992FAA2F2FA60C4
:100D2C00FA68B2FA82F200FA02F20A435A601D4BD8
:100D3C0001221A60FFF70CFB786308E0FFF708FB51
:100D4C0002467B6BD31A642B01D9032320E0144B8E
:100D5C001B6803F00073002BF0D018E0114B00223D
:100D6C001A60FFF7F5FA786308E0FFF7F1FA02462C
:100D7C007B6BD31A642B01D9032309E0084B1B6846
:100D8C0003F00073002BF0D101E0012300E00023FD
:100D9C0018463837BD4680BD0070004070380240A0
:100DAC00003802406000474280B584B000AF7860E4
:100DBC0039600023FB60A24B1B6803F00F023B68F9
:100DCC009A4280F0A8809E4B3A68D2B21A709C4B23
:100DDC001B6803F00F023B689A4201D0012369E1C2
:100DEC007B681B6803F00203002B08D0954B954AD7
:100DFC00926822F0F0017A6892680A439A607B68E4
:100E0C001B6803F00103002B00F031817B685B68E9
:100E1C00012B07D18B4B1B6803F40033002B1AD129
:100E2C00012347E17B685B68022B03D07B685B681E
:100E3C00032B08D1834B1B6803F00073002B01D1EB
:100E4C00012337E107E07F4B1B6803F00203002B03
:100E5C0001D101232EE17B4B7A4A926822F00301E7
:100E6C007A6852680A439A60FFF772FAF8607B68F6
:100E7C005B68012B12D10AE0FFF76AFA0246FB68A5
:100E8C00D21A41F288339A4201D9032312E16D4BF5
:100E9C009B6803F00C03042BEED1E8E07B685B68E5
:100EAC00022B12D10AE0FFF753FA0246FB68D21A62
:100EBC0041F288339A4201D90323FBE0614B9B68D2
:100ECC0003F00C03082BEED1D1E07B685B68032B9D
:100EDC000ED101E00323EDE05A4B9B68FFF738FA83
:100EEC000246FB68D21A41F288339A42F4D9F1E7F0
:100EFC000AE0FFF72DFA0246FB68D21A41F288335A
:100F0C009A4201D90323D5E04E4B9B6803F00C03A6
:100F1C00002BEED1ABE07B681B6803F00203002BC7
:100F2C0008D0484B474A926822F0F0017A689268E0
:100F3C000A439A607B681B6803F00103002B00F0E6
:100F4C0089807B685B68012B07D13E4B1B6803F4DF
:100F5C000033002B1AD10123ACE07B685B68022BB9
:100F6C0003D07B685B68032B08D1364B1B6803F0FE
:100F7C000073002B01D101239CE007E0314B1B686F
:100F8C0003F00203002B01D1012393E02D4B2D4ADA
:100F9C00926822F003017A6852680A439A60FFF75C
:100FAC00D7F9F8607B685B68012B12D10AE0FFF778
:100FBC00CFF90246FB68D21A41F288339A4201D922
:100FCC00032377E01F4B9B6803F00C03042BEED13B
:100FDC0040E07B685B68022B12D10AE0FFF7B8F99E
:100FEC000246FB68D21A41F288339A4201D9032394
:100FFC0060E0144B9B6803F00C03082BEED129E046
:10100C007B685B68032B0ED101E0032352E00D4B90
:10101C009B68FFF79DF90246FB68D21A41F28833B0
:10102C009A42F4D9F1E70FE0FFF792F90246FB6818
:10103C00D21A41F288339A4206D903233AE000BF10
:10104C00003C0240003802401C4B9B6803F00C0330
:10105C00002BE9D11A4B3A68D2B21A70184B1B68A4
:10106C0003F00F023B689A4201D0012322E07B6817
:10107C001B6803F00403002B08D0104B0F4A926836
:10108C0022F4E0517A68D2680A439A607B681B6844
:10109C0003F00803002B09D0084B084A926822F48D
:1010AC0060417A681269D2000A439A600020FFF707
:1010BC0025F9002318461037BD4680BD0038024084
:1010CC00003C024080B48BB000AF0023FB610023D6
:1010DC007B620023BB6100233B62364B9B6803F0B1
:1010EC000C03042B06D0082B07D0002B58D1324B05
:1010FC003B6258E0314B3B6255E02E4B5B6803F092
:10110C003F03FB612B4B5B6803F48003002B17D070
:10111C002A4AFB69B2FBF3F2264B596847F6C073B7
:10112C000B4047F6C0717961796991FAA1F1396187
:10113C003969B1FA81F1CB4003FB02F37B6216E013
:10114C001D4AFB69B2FBF3F21A4B596847F6C073A0
:10115C000B4047F6C071F960F96891FAA1F1B960DA
:10116C00B968B1FA81F1CB4003FB02F37B62114BFE
:10117C005B6803F440324FF440337B607B6893FA36
:10118C00A3F33B603B68B3FA83F322FA03F3013316
:10119C005B00BB617A6ABB69B2FBF3F33B6202E0B2
:1011AC00054B3B6200BF3B6A18462C37BD465DF8C9
:1011BC00047B7047003802400024F40000127A00CF
:1011CC0080B582B000AFFFF77DFF02460C4B9B68E9
:1011DC0003F0F001F0237B607B6893FAA3F33B6090
:1011EC003B68B3FA83F321FA03F30649CB5CDA408C
:1011FC00054B1A60044B1B6818460837BD4680BD6A
:10120C0000380240082200080000002080B500AF22
:10121C00FFF752F800F014F800F072F806484FF49B
:10122C000051FFF769FB4FF47A70FFF79DF8034804
:10123C0000F05AFBF2E700BF00180240F82100084A
:10124C0080B594B000AF2B4B2A4A126C42F08052FE
:10125C001A64284B1B6C03F08053BB60BB68264B95
:10126C00254A126842F440421A60234B1B6803F46F
:10127C0040437B607B6801233B6201237B6202233A
:10128C00BB634FF48003FB6308233B644FF4A873E8
:10129C007B640223BB640723FB6407F1200318461D
:1012AC00FFF73CFB0D23FB6002233B6100237B61BA
:1012BC004FF4A053BB614FF48053FB6107F10C0357
:1012CC0018460521FFF770FDFFF77AFF02460B4B1E
:1012DC00A3FB02139B091846FFF732F90420FFF712
:1012EC003BF94FF0FF3000210022FFF70DF950378A
:1012FC00BD4680BD0038024000700040D34D6210E6
:10130C0080B58EB000AFAA4BA94A126B42F0040212
:10131C001A63A74B1B6B03F004033B623B6AA44BA1
:10132C00A34A126B42F020021A63A14B1B6B03F011
:10133C002003FB61FB699E4B9D4A126B42F08002BD
:10134C001A639B4B1B6B03F08003BB61BB69984B0F
:10135C00974A126B42F001021A63954B1B6B03F018
:10136C0001037B617B69924B914A126B42F0020242
:10137C001A638F4B1B6B03F002033B613B698C4B75
:10138C008B4A126B42F040021A63894B1B6B03F0C1
:10139C004003FB60FB68864B854A126B42F01002DF
:1013AC001A63834B1B6B03F01003BB60BB68804B51
:1013BC007F4A126B42F008021A637D4B1B6B03F0E1
:1013CC0008037B607B684FF63F037B620223BB62A2
:1013DC000023FB6203233B630C237B6307F1240391
:1013EC0074481946FFF7E0F84FF460737B620223F0
:1013FC00BB620023FB6200233B6305237B6307F185
:10140C0024036C481946FFF7CFF84FF480637B62D6
:10141C000223BB620023FB6200233B630E237B632E
:10142C0007F1240363481946FFF7BEF801237B62DA
:10143C000223BB620023FB6203233B630C237B630D
:10144C0007F124035C481946FFF7AEF816237B62BC
:10145C000123BB620023FB6200233B6307F12403DF
:10146C0055481946FFF7A0F848F207037B62534B27
:10147C00BB620023FB6207F1240351481946FFF7B6
:10148C0093F841F658037B620223BB620023FB6294
:10149C0000233B630E237B6307F124034848194662
:1014AC00FFF782F880237B620123BB620023FB627F
:1014BC0000233B6307F1240341481946FFF774F8F6
:1014CC0020237B623D4BBB620023FB6207F12403AC
:1014DC0039481946FFF768F803237B620223BB6285
:1014EC000023FB6200233B6309237B6307F1240386
:1014FC0034481946FFF758F804237B620023BB627B
:10150C000023FB6207F124032E481946FFF74CF821
:10151C0048F233137B620223BB620023FB6203237A
:10152C003B630C237B6307F1240327481946FFF721
:10153C003BF84FF683737B620223BB620023FB6292
:10154C0003233B630C237B6307F124031F481946D9
:10155C00FFF72AF84FF470637B620223BB6200230F
:10156C00FB6200233B630E237B6307F124031548C6
:10157C001946FFF719F84FF450437B620223BB6204
:10158C000023FB6200233B630C237B6307F12403E2
:10159C000C481946FFF708F84FF400537B62002300
:1015AC00BB620023FB6207F12403064819460FE0D7
:1015BC0000380240001402400008024000001210E3
:1015CC0000000240000402400018024000100240DB
:1015DC00FEF7EAFF4CF203737B620223BB6200232B
:1015EC00FB6203233B630C237B6307F12403534807
:1015FC001946FEF7D9FF4FF400637B620023BB62F0
:10160C000023FB6207F124034C481946FEF7CCFF7C
:10161C004FF440537B620123BB620023FB62002327
:10162C003B6307F1240345481946FEF7BDFF4FF411
:10163C000C637B620223BB620023FB6200233B63CF
:10164C000E237B6307F124033D481946FEF7ACFFDC
:10165C004FF498637B620223BB620023FB6200237E
:10166C003B630E237B6307F1240336481946FEF7D0
:10167C009BFF4FF400737B621223BB620123FB625E
:10168C0000233B6304237B6307F124032D48194695
:10169C00FEF78AFF4FF480737B621223BB62012337
:1016AC00FB6200233B6304237B6307F1240326487E
:1016BC001946FEF779FF48237B620223BB620023A5
:1016CC00FB6200233B630E237B6307F124031B485F
:1016DC001946FEF769FF4FF4A0537B620223BB62ED
:1016EC000023FB6200233B6309237B6307F1240384
:1016FC0013481946FEF758FF4FF4C0437B62012391
:10170C00BB620023FB6200233B6307F124030C48FC
:10171C001946FEF749FF60237B620223BB6200235C
:10172C00FB6203233B630C237B6307F12403074811
:10173C001946FEF739FF3837BD4680BD000C024014
:10174C000018024000080240000002400004024061
:10175C0080B500AF0720FEF7CDFE4FF0FF30002123
:10176C000022FEF7D1FE80BD80B500AFFEF7E2FD92
:10177C00FEF70EFF80BD00BFDFF834D0002103E080
:10178C000C4B5B58435004310B480C4B42189A429B
:10179C00F6D30B4A02E0002342F8043B094B9A4271
:1017AC00F9D3FEF753FD00F011F8FFF72FFD70474A
:1017BC0000000320882200080000002068000020A0
:1017CC006800002098000020FEE7000070B50E4B6A
:1017DC000E4DED1AAD1000241E46AC4204D056F846
:1017EC00242090470134F8E700F0F4FC084D094B35
:1017FC00ED1AAD1000241E46AC4204D056F824203D
:10180C0090470134F8E770BD802200088022000860
:10181C00842200088022000802440346934202D02E
:10182C0003F8011BFAE7704770B50E46054618B170
:10183C0083690BB900F010FAAC68A389190701D5BC
:10184C00236983B92846214600F0AAF858B14FF015
:10185C00FF3070BD002B0EDB236816F8012C1A70BC
:10186C00236801332360A36816F8012B013BA360A6
:10187C00002AEFD117E0A269934209DB236816F81E
:10188C00012C1A70236819780A29EAD1284602E03B
:10189C0016F8011C2846224600F02EF8B0F1FF3253
:1018AC0050425041D2E7002B16DAA269934208DB72
:1018BC0023680A221A7023681978914210D128469D
:1018CC0001E028460A21224600F016F8B0F1FF3359
:1018DC005842584130B1BAE723680A221A7023687B
:1018EC00013323600A2070BD024B01461868FFF7D4
:1018FC009BBF00BF6400002070B50E461446054621
:10190C0018B183690BB900F0A7F9224B9C4201D1A5
:10191C006C6808E0204B9C4201D1AC6803E01F4B83
:10192C009C4208BFEC68A369A360A3891A0709D578
:10193C0023693BB123692068C01A63699842F6B2E7
:10194C000FDB08E02846214600F02AF80028F1D0E9
:10195C004FF0FF3070BD2846214600F013F90028E7
:10196C00F6D1A368013BA36023685A1C22601E7049
:10197C0063690130984204D0A389DB0707D50A2E8E
:10198C0005D12846214600F0FDF80028E0D130466C
:10199C0070BD00BF20220008402200086022000811
:1019AC00324B70B51D6806460C4625B1AB6913B9B0
:1019BC00284600F051F92E4B9C4201D16C6808E08E
:1019CC002C4B9C4201D1AC6803E02B4B9C4208BFD2
:1019DC00EC68A28993B2190720D4DD0605D409233B
:1019EC0042F040023360A2813BE0580712D5616B94
:1019FC0041B104F14403994202D0304600F004FA9C
:101A0C0000236363A38923F02403A3810023636071
:101A1C0023692360A38943F00803A38123694BB98D
:101A2C00A38903F42073B3F5007F03D0304621461D
:101A3C0000F09CF9A38913F0010205D00022A260EA
:101A4C0062695242A26103E0990758BF6269A260C1
:101A5C0022694AB903F0800080B230B143F04003F0
:101A6C00A3814FF0FF3070BD002070BD64000020DA
:101A7C002022000840220008602200088A892DE9F3
:101A8C00F041054610070C4657D44B68002B02DC7E
:101A9C000B6C002B18DDE66AB6B102F48052002301
:101AAC0092B22F682B600AB1626D10E0216A284651
:101ABC000123B047411C024609D12B683BB11D2BB9
:101ACC0001D0162B46D12F600020BDE8F081A389F0
:101ADC005B0705D56368D21A636B0BB1236CD21A02
:101AEC00E66A216A28460023B047461CA28905D124
:101AFC002B681BB11D2B01D0162B19D10023636051
:101B0C00D1042369236004D5421C01D12B6803B98D
:101B1C006065616B2F600029D6D004F144039942B3
:101B2C0002D0284600F070F900206063BDE8F08117
:101B3C0042F04002A281BDE8F0810E69002EC3D0B4
:101B4C000B680E60C6EB030893070CBF4B690023B0
:101B5C008B6012E0A38943F04003A3814FF0FF3068
:101B6C00BDE8F081A76A216A284632464346B84749
:101B7C000028EFDD0644C0EB0808B8F1000FF1DCDB
:101B8C00A2E7000038B50B6905460C46DBB118B16D
:101B9C0083690BB900F060F80C4B9C4201D16C6866
:101BAC0008E00B4B9C4201D1AC6803E0094B9C4212
:101BBC0008BFEC68B4F90C302BB128462146BDE8BF
:101BCC003840FFF75BBF002038BD00BF2022000863
:101BDC004022000860220008014900F0A9B800BFAB
:101BEC0035200008002310B5044603604360836071
:101BFC0081814366C28103614361836119465C3014
:101C0C000822FFF709FE054B6362054BA362054BE7
:101C1C00E362054B2462236310BD00BF691F0008FB
:101C2C008B1F0008C31F0008E71F000870B54B1E70
:101C3C0068255D430E4605F1740100F029F9044650
:101C4C0040B1002180E842000C30A06005F1680230
:101C5C00FFF7E2FD204670BD836910B5044633BB27
:101C6C008364C3640365124B124A1B6882629842F8
:101C7C0004BF0123836100F01FF86060204600F070
:101C8C001BF8A060204600F017F80421E060002249
:101C9C006068FFF7A7FFA06809210122FFF7A2FFE8
:101CAC00E06812210222FFF79DFF0123A36110BD02
:101CBC001C220008E51B0008F8B51B4B1E68B36915
:101CCC00074613B93046FFF7C7FF4836B468736848
:101CDC00013B04D4B4F90C5075B16834F8E733689F
:101CEC002BB938460421FFF7A1FF306008B13668E4
:101CFC00ECE70C233B60F8BD4FF6FF73E381012347
:101D0C00A38165662560A560656025616561A56137
:101D1C0004F15C0029460822FFF77EFD6563A5638C
:101D2C00A564E5642046F8BD1C2200087047704786
:101D3C002DE9F8438046894600F14804002694B109
:101D4C00A5686768013F0CD4AB89012B07D9B5F99D
:101D5C000E30013303D040462946C8470643683548
:101D6C00F0E72468EBE73046BDE8F883F0B58B89E3
:101D7C009E0791B005460C4626D4B1F90E100029E9
:101D8C0009DAA38913F0800F4FF0000714BF402627
:101D9C004FF480660DE001AA00F098F90028F0DB02
:101DAC00029F07F47047B7F500514F424F414FF473
:101DBC0080662846314600F06BF860B9A3899A0515
:101DCC001DD443F00203A38104F147032360236174
:101DDC000123636113E00B4BAB62A389206043F0DA
:101DEC008003A381206166614FB12846B4F90E10BF
:101DFC0000F07EF918B1A38943F00103A38111B05F
:101E0C00F0BD00BFE51B000830B500293CD051F8EF
:101E1C00042C0B1F1D49002AB8BF9B180A680C46DE
:101E2C0012B95A600B6030BD93420DD21968581824
:101E3C00904203D15A581144426819605A60236089
:101E4C0030BD994203D80A4651680029F9D114686B
:101E5C0015199D420AD11B682344D018884213607F
:101E6C0012D10868034413604B680CE002D90C23B0
:101E7C00036030BD18681C188C4203D10C6849688B
:101E8C00204418605960536030BD00BF8C000020A6
:101E9C0070B5CD1C25F0030508350C2D38BF0C256D
:101EAC00002D064603DA0C233360002070BD8D42F2
:101EBC00F9D3204B1C6818462146A1B10B685B1B5B
:101ECC000ED40B2B03D90B60CC18CD501FE08C42D9
:101EDC0002D1626802601AE04B6863600C4616E03F
:101EEC000C464968E9E7144C23681BB9304600F0EE
:101EFC0025F820602946304600F020F8431C0146A6
:101F0C00D1D0C41C24F0030484420AD1256004F10E
:101F1C000B00231D20F00700C31A09D05A42E250CF
:101F2C0070BD3046611A00F009F80130EED1BAE705
:101F3C0070BD00BF8C0000208800002038B5064C16
:101F4C00002305460846236000F02EF9431C02D1FD
:101F5C00236803B12B6038BD9400002010B50C46EB
:101F6C00B1F90E1000F0E6F8002803DB636D0344B2
:101F7C00636510BDA38923F48053A38110BD2DE9A3
:101F8C00F0411D468B89DB0507460C46164605D5E8
:101F9C00B1F90E100022022300F0BAF8A389B4F9AB
:101FAC000E1023F48053A381384632462B46BDE8ED
:101FBC00F04100F017B810B50C46B1F90E1000F056
:101FCC00A7F8431CA38903D123F48053A38110BD2C
:101FDC0043F48053A381606510BDB1F90E1000F07D
:101FEC0013B8000038B5074C0546002020600846A1
:101FFC0011461A4600F0E6F8431C02D1236803B1DF
:10200C002B6038BD9400002038B5064C00230546E3
:10201C000846236000F0A0F8431C02D1236803B1EA
:10202C002B6038BD9400002070B505460C4609B9EC
:10203C00002070BD18B183690BB9FFF70DFE204B62
:10204C009C4201D16C6808E01E4B9C4201D1AC68EB
:10205C0003E01D4B9C4208BFEC68B4F90C30002B1C
:10206C00E6D028462146FFF709FD236B064633B11F
:10207C002846216A98470028B8BF4FF0FF36A3893D
:10208C001B0603D528462169FFF7BEFE616B41B1E3
:10209C0004F14403994202D02846FFF7B5FE002311
:1020AC006363A16C21B12846FFF7AEFE0023A36445
:1020BC00FFF73CFE0023A381FFF739FE304670BDCD
:1020CC0020220008402200086022000838B5074C86
:1020DC000023054608461146236000F045F8431CD2
:1020EC0002D1236803B12B6038BD00BF94000020DF
:1020FC0038B5064C002305460846236000F03CF832
:10210C00431C02D1236803B12B6038BD940000201E
:10211C0038B5074C054600202060084611461A4683
:10212C0000F032F8431C02D1236803B12B6038BD98
:10213C009400002038B5074C054600202060084666
:10214C0011461A4600F028F8431C02D1236803B14B
:10215C002B6038BD94000020024B58221A604FF0BF
:10216C00FF30704794000020024B58221A604FF049
:10217C00FF30704794000020024B58221A60002058
:10218C00704700BF94000020024B58221A604FF099
:10219C00FF30704794000020024B58221A604FF019
:1021AC00FF30704794000020044A05491368002B47
:1021BC0008BF0B461844106018467047900000206A
:1021CC0098000020024B58221A604FF0FF307047E5
:1021DC0094000020F8B500BFF8BC08BC9E467047C0
:0C21EC00F8B500BFF8BC08BC9E46704768
:1021F80048656C6C6F20576F726C64210D0000008D
:102208000000000001020304010203040607080994
:10221800430000000400002000000000000000004F
:1022280000000000000000000000000000000000A6
:102238000000000000000000000000000000000096
:102248000000000000000000000000000000000086
:102258000000000000000000000000000000000076
:102268000000000000000000000000000000000066
:0822780000000000000000005E
:04228000250200082B
:04228400FD01000850
:102288000024F4000000000020220008402200087A
:1022980060220008000000000000000000000000AC
:1022A80000000000182200080000000000000000E4
:1022B8000000000000000000000000000000000016
:1022C8000000000000000000000000000000000006
:1022D80000000000000000000000000000000000F6
:0822E8000000000004000020CA
:040000050800178553
:00000001FF
